:1000000009C00EC00DC00CC00BC00AC009C008C09A
:1000100007C006C011241FBECFE9CDBF02D04CC01F
:10002000EFCF8FE187BB41E029E130E0B2E0A4E00F
:1000300073E065E056E048BB80E197E2F901319753
:10004000F1F70197D9F7B8BB80E197E2F901319751
:10005000F1F70197D9F7A8BB80E395E7F90131974C
:10006000F1F70197D9F748BB80E197E2F9013197A1
:10007000F1F70197D9F778BB80E197E2F901319761
:10008000F1F70197D9F768BB80E197E2F901319761
:10009000F1F70197D9F748BB80E197E2F901319771
:1000A000F1F70197D9F758BB80E197E2F901319751
:0C00B000F1F70197D9F7BFCFF894FFCF0C
:00000001FF
